{
	"_format": "hh-sol-artifact-1",
	"contractName": "clean_my_web",
	"sourceName": "contracts/clean_my_web.sol",
	"abi": [
		{
			"inputs": [],
			"stateMutability": "payable",
			"type": "constructor"
		},
		{
			"anonymous": false,
			"inputs": [
				{
					"indexed": false,
					"internalType": "uint256",
					"name": "index",
					"type": "uint256"
				},
				{
					"indexed": false,
					"internalType": "string",
					"name": "status",
					"type": "string"
				},
				{
					"components": [
						{
							"internalType": "address",
							"name": "contributor",
							"type": "address"
						},
						{
							"internalType": "uint256",
							"name": "created_time",
							"type": "uint256"
						},
						{
							"internalType": "string[]",
							"name": "url_list",
							"type": "string[]"
						},
						{
							"internalType": "string[]",
							"name": "feature_extractor",
							"type": "string[]"
						},
						{
							"internalType": "uint256[]",
							"name": "labels",
							"type": "uint256[]"
						}
					],
					"indexed": false,
					"internalType": "struct clean_my_web.Data",
					"name": "data",
					"type": "tuple"
				}
			],
			"name": "dataEvent",
			"type": "event"
		},
		{
			"inputs": [
				{
					"internalType": "address",
					"name": "newOwner",
					"type": "address"
				}
			],
			"name": "change_owner",
			"outputs": [],
			"stateMutability": "nonpayable",
			"type": "function"
		},
		{
			"inputs": [
				{
					"internalType": "uint256",
					"name": "start_idx",
					"type": "uint256"
				}
			],
			"name": "download",
			"outputs": [
				{
					"components": [
						{
							"internalType": "address",
							"name": "contributor",
							"type": "address"
						},
						{
							"internalType": "uint256",
							"name": "created_time",
							"type": "uint256"
						},
						{
							"internalType": "string[]",
							"name": "url_list",
							"type": "string[]"
						},
						{
							"internalType": "string[]",
							"name": "feature_extractor",
							"type": "string[]"
						},
						{
							"internalType": "uint256[]",
							"name": "labels",
							"type": "uint256[]"
						}
					],
					"internalType": "struct clean_my_web.Data[]",
					"name": "",
					"type": "tuple[]"
				}
			],
			"stateMutability": "payable",
			"type": "function"
		},
		{
			"inputs": [],
			"name": "flush",
			"outputs": [],
			"stateMutability": "payable",
			"type": "function"
		},
		{
			"inputs": [],
			"name": "get_owner",
			"outputs": [
				{
					"internalType": "address",
					"name": "",
					"type": "address"
				}
			],
			"stateMutability": "view",
			"type": "function"
		},
		{
			"inputs": [
				{
					"components": [
						{
							"internalType": "address",
							"name": "contributor",
							"type": "address"
						},
						{
							"internalType": "uint256",
							"name": "created_time",
							"type": "uint256"
						},
						{
							"internalType": "string[]",
							"name": "url_list",
							"type": "string[]"
						},
						{
							"internalType": "string[]",
							"name": "feature_extractor",
							"type": "string[]"
						},
						{
							"internalType": "uint256[]",
							"name": "labels",
							"type": "uint256[]"
						}
					],
					"internalType": "struct clean_my_web.Data",
					"name": "data",
					"type": "tuple"
				}
			],
			"name": "upload",
			"outputs": [
				{
					"internalType": "uint256",
					"name": "",
					"type": "uint256"
				}
			],
			"stateMutability": "payable",
			"type": "function"
		}
	],
	"bytecode": "0x6080604052336000806101000a81548173ffffffffffffffffffffffffffffffffffffffff021916908373ffffffffffffffffffffffffffffffffffffffff160217905550611cf4806100536000396000f3fe60806040526004361061004a5760003560e01c80630ac298dc1461004f578063253c8bd41461007a5780636b9f96ea146100a357806387b9c24d146100ad578063e9510b7e146100dd575b600080fd5b34801561005b57600080fd5b5061006461010d565b6040516100719190610b34565b60405180910390f35b34801561008657600080fd5b506100a1600480360381019061009c9190610b8f565b610136565b005b6100ab6101d1565b005b6100c760048036038101906100c29190610bf2565b61022b565b6040516100d49190610f8d565b60405180910390f35b6100f760048036038101906100f29190611377565b610788565b60405161010491906113cf565b60405180910390f35b60008060009054906101000a900473ffffffffffffffffffffffffffffffffffffffff16905090565b60008054906101000a900473ffffffffffffffffffffffffffffffffffffffff1673ffffffffffffffffffffffffffffffffffffffff163373ffffffffffffffffffffffffffffffffffffffff161461018e57600080fd5b806000806101000a81548173ffffffffffffffffffffffffffffffffffffffff021916908373ffffffffffffffffffffffffffffffffffffffff16021790555050565b60008054906101000a900473ffffffffffffffffffffffffffffffffffffffff1673ffffffffffffffffffffffffffffffffffffffff163373ffffffffffffffffffffffffffffffffffffffff161461022957600080fd5b565b606060018260018054905060646102429190611419565b61024c9190611473565b6102569190611473565b3411610297576040517f08c379a000000000000000000000000000000000000000000000000000000000815260040161028e9061152a565b60405180910390fd5b60018054905082106102de576040517f08c379a00000000000000000000000000000000000000000000000000000000081526004016102d590611596565b60405180910390fd5b6000826001805490506102f19190611473565b67ffffffffffffffff81111561030a57610309610fb4565b5b60405190808252806020026020018201604052801561034357816020015b6103306108fa565b8152602001906001900390816103285790505b50905060008390505b60018054905081101561077e5760006001828154811061036f5761036e6115b6565b5b906000526020600020906005020160000160009054906101000a900473ffffffffffffffffffffffffffffffffffffffff1673ffffffffffffffffffffffffffffffffffffffff1660646040516103c590611616565b60006040518083038185875af1925050503d8060008114610402576040519150601f19603f3d011682016040523d82523d6000602084013e610407565b606091505b505090508061044b576040517f08c379a000000000000000000000000000000000000000000000000000000000815260040161044290611677565b60405180910390fd5b6001828154811061045f5761045e6115b6565b5b90600052602060002090600502016040518060a00160405290816000820160009054906101000a900473ffffffffffffffffffffffffffffffffffffffff1673ffffffffffffffffffffffffffffffffffffffff1673ffffffffffffffffffffffffffffffffffffffff1681526020016001820154815260200160028201805480602002602001604051908101604052809291908181526020016000905b828210156105a957838290600052602060002001805461051c906116c6565b80601f0160208091040260200160405190810160405280929190818152602001828054610548906116c6565b80156105955780601f1061056a57610100808354040283529160200191610595565b820191906000526020600020905b81548152906001019060200180831161057857829003601f168201915b5050505050815260200190600101906104fd565b50505050815260200160038201805480602002602001604051908101604052809291908181526020016000905b828210156106825783829060005260206000200180546105f5906116c6565b80601f0160208091040260200160405190810160405280929190818152602001828054610621906116c6565b801561066e5780601f106106435761010080835404028352916020019161066e565b820191906000526020600020905b81548152906001019060200180831161065157829003601f168201915b5050505050815260200190600101906105d6565b505050508152602001600482018054806020026020016040519081016040528092919081815260200182805480156106d957602002820191906000526020600020905b8154815260200190600101908083116106c5575b5050505050815250508386846106ef9190611473565b81518110610700576106ff6115b6565b5b60200260200101819052507f4231f248c058b000b783a771f6e89723a6588d06ce65e17ab8937c3f456fb9e960018054905060018481548110610746576107456115b6565b5b9060005260206000209060050201604051610762929190611a37565b60405180910390a150808061077690611a7a565b91505061034c565b5080915050919050565b60006103e734116107ce576040517f08c379a00000000000000000000000000000000000000000000000000000000081526004016107c590611b35565b60405180910390fd5b600182908060018154018082558091505060019003906000526020600020906005020160009091909190915060008201518160000160006101000a81548173ffffffffffffffffffffffffffffffffffffffff021916908373ffffffffffffffffffffffffffffffffffffffff16021790555060208201518160010155604082015181600201908051906020019061086792919061093f565b50606082015181600301908051906020019061088492919061093f565b5060808201518160040190805190602001906108a192919061099f565b5050507f4231f248c058b000b783a771f6e89723a6588d06ce65e17ab8937c3f456fb9e9600180549050836040516108da929190611c25565b60405180910390a1600180805490506108f39190611c68565b9050919050565b6040518060a00160405280600073ffffffffffffffffffffffffffffffffffffffff168152602001600081526020016060815260200160608152602001606081525090565b82805482825590600052602060002090810192821561098e579160200282015b8281111561098d57825182908051906020019061097d9291906109ec565b509160200191906001019061095f565b5b50905061099b9190610a72565b5090565b8280548282559060005260206000209081019282156109db579160200282015b828111156109da5782518255916020019190600101906109bf565b5b5090506109e89190610a96565b5090565b8280546109f8906116c6565b90600052602060002090601f016020900481019282610a1a5760008555610a61565b82601f10610a3357805160ff1916838001178555610a61565b82800160010185558215610a61579182015b82811115610a60578251825591602001919060010190610a45565b5b509050610a6e9190610a96565b5090565b5b80821115610a925760008181610a899190610ab3565b50600101610a73565b5090565b5b80821115610aaf576000816000905550600101610a97565b5090565b508054610abf906116c6565b6000825580601f10610ad15750610af0565b601f016020900490600052602060002090810190610aef9190610a96565b5b50565b600073ffffffffffffffffffffffffffffffffffffffff82169050919050565b6000610b1e82610af3565b9050919050565b610b2e81610b13565b82525050565b6000602082019050610b496000830184610b25565b92915050565b6000604051905090565b600080fd5b600080fd5b610b6c81610b13565b8114610b7757600080fd5b50565b600081359050610b8981610b63565b92915050565b600060208284031215610ba557610ba4610b59565b5b6000610bb384828501610b7a565b91505092915050565b6000819050919050565b610bcf81610bbc565b8114610bda57600080fd5b50565b600081359050610bec81610bc6565b92915050565b600060208284031215610c0857610c07610b59565b5b6000610c1684828501610bdd565b91505092915050565b600081519050919050565b600082825260208201905092915050565b6000819050602082019050919050565b610c5481610b13565b82525050565b610c6381610bbc565b82525050565b600081519050919050565b600082825260208201905092915050565b6000819050602082019050919050565b600081519050919050565b600082825260208201905092915050565b60005b83811015610ccf578082015181840152602081019050610cb4565b83811115610cde576000848401525b50505050565b6000601f19601f8301169050919050565b6000610d0082610c95565b610d0a8185610ca0565b9350610d1a818560208601610cb1565b610d2381610ce4565b840191505092915050565b6000610d3a8383610cf5565b905092915050565b6000602082019050919050565b6000610d5a82610c69565b610d648185610c74565b935083602082028501610d7685610c85565b8060005b85811015610db25784840389528151610d938582610d2e565b9450610d9e83610d42565b925060208a01995050600181019050610d7a565b50829750879550505050505092915050565b600081519050919050565b600082825260208201905092915050565b6000819050602082019050919050565b6000610dfc8383610c5a565b60208301905092915050565b6000602082019050919050565b6000610e2082610dc4565b610e2a8185610dcf565b9350610e3583610de0565b8060005b83811015610e66578151610e4d8882610df0565b9750610e5883610e08565b925050600181019050610e39565b5085935050505092915050565b600060a083016000830151610e8b6000860182610c4b565b506020830151610e9e6020860182610c5a565b5060408301518482036040860152610eb68282610d4f565b91505060608301518482036060860152610ed08282610d4f565b91505060808301518482036080860152610eea8282610e15565b9150508091505092915050565b6000610f038383610e73565b905092915050565b6000602082019050919050565b6000610f2382610c1f565b610f2d8185610c2a565b935083602082028501610f3f85610c3b565b8060005b85811015610f7b5784840389528151610f5c8582610ef7565b9450610f6783610f0b565b925060208a01995050600181019050610f43565b50829750879550505050505092915050565b60006020820190508181036000830152610fa78184610f18565b905092915050565b600080fd5b7f4e487b7100000000000000000000000000000000000000000000000000000000600052604160045260246000fd5b610fec82610ce4565b810181811067ffffffffffffffff8211171561100b5761100a610fb4565b5b80604052505050565b600061101e610b4f565b905061102a8282610fe3565b919050565b600080fd5b600080fd5b600067ffffffffffffffff82111561105457611053610fb4565b5b602082029050602081019050919050565b600080fd5b600080fd5b600067ffffffffffffffff82111561108a57611089610fb4565b5b61109382610ce4565b9050602081019050919050565b82818337600083830152505050565b60006110c26110bd8461106f565b611014565b9050828152602081018484840111156110de576110dd61106a565b5b6110e98482856110a0565b509392505050565b600082601f83011261110657611105611034565b5b81356111168482602086016110af565b91505092915050565b600061113261112d84611039565b611014565b9050808382526020820190506020840283018581111561115557611154611065565b5b835b8181101561119c57803567ffffffffffffffff81111561117a57611179611034565b5b80860161118789826110f1565b85526020850194505050602081019050611157565b5050509392505050565b600082601f8301126111bb576111ba611034565b5b81356111cb84826020860161111f565b91505092915050565b600067ffffffffffffffff8211156111ef576111ee610fb4565b5b602082029050602081019050919050565b600061121361120e846111d4565b611014565b9050808382526020820190506020840283018581111561123657611235611065565b5b835b8181101561125f578061124b8882610bdd565b845260208401935050602081019050611238565b5050509392505050565b600082601f83011261127e5761127d611034565b5b813561128e848260208601611200565b91505092915050565b600060a082840312156112ad576112ac610faf565b5b6112b760a0611014565b905060006112c784828501610b7a565b60008301525060206112db84828501610bdd565b602083015250604082013567ffffffffffffffff8111156112ff576112fe61102f565b5b61130b848285016111a6565b604083015250606082013567ffffffffffffffff81111561132f5761132e61102f565b5b61133b848285016111a6565b606083015250608082013567ffffffffffffffff81111561135f5761135e61102f565b5b61136b84828501611269565b60808301525092915050565b60006020828403121561138d5761138c610b59565b5b600082013567ffffffffffffffff8111156113ab576113aa610b5e565b5b6113b784828501611297565b91505092915050565b6113c981610bbc565b82525050565b60006020820190506113e460008301846113c0565b92915050565b7f4e487b7100000000000000000000000000000000000000000000000000000000600052601160045260246000fd5b600061142482610bbc565b915061142f83610bbc565b9250817fffffffffffffffffffffffffffffffffffffffffffffffffffffffffffffffff0483118215151615611468576114676113ea565b5b828202905092915050565b600061147e82610bbc565b915061148983610bbc565b92508282101561149c5761149b6113ea565b5b828203905092915050565b600082825260208201905092915050565b7f796f75206e65656420746f20706179206174206c65617374203130302077656960008201527f20746f20646f776e6c6f6164206e657720646174610000000000000000000000602082015250565b60006115146035836114a7565b915061151f826114b8565b604082019050919050565b6000602082019050818103600083015261154381611507565b9050919050565b7f537461727420696e646578206f7574206f6620626f756e647300000000000000600082015250565b60006115806019836114a7565b915061158b8261154a565b602082019050919050565b600060208201905081810360008301526115af81611573565b9050919050565b7f4e487b7100000000000000000000000000000000000000000000000000000000600052603260045260246000fd5b600081905092915050565b50565b60006116006000836115e5565b915061160b826115f0565b600082019050919050565b6000611621826115f3565b9150819050919050565b7f6661696c656420746f2070617920636f6e7472696275746f7200000000000000600082015250565b60006116616019836114a7565b915061166c8261162b565b602082019050919050565b6000602082019050818103600083015261169081611654565b9050919050565b7f4e487b7100000000000000000000000000000000000000000000000000000000600052602260045260246000fd5b600060028204905060018216806116de57607f821691505b602082108114156116f2576116f1611697565b5b50919050565b7f737563636573737366756c6c79207061696420636f6e7472696275746f720000600082015250565b600061172e601e836114a7565b9150611739826116f8565b602082019050919050565b60008160001c9050919050565b600073ffffffffffffffffffffffffffffffffffffffff82169050919050565b600061178461177f83611744565b611751565b9050919050565b6000819050919050565b60006117a86117a383611744565b61178b565b9050919050565b600081549050919050565b60008190508160005260206000209050919050565b60008190508160005260206000209050919050565b600081546117f1816116c6565b6117fb8186610ca0565b9450600182166000811461181657600181146118285761185b565b60ff198316865260208601935061185b565b611831856117cf565b60005b8381101561185357815481890152600182019150602081019050611834565b808801955050505b50505092915050565b600061187083836117e4565b905092915050565b6000600182019050919050565b6000611890826117af565b61189a8185610c74565b9350836020820285016118ac856117ba565b8060005b858110156118e7578484038952816118c88582611864565b94506118d383611878565b925060208a019950506001810190506118b0565b50829750879550505050505092915050565b600081549050919050565b60008190508160005260206000209050919050565b60006119258254611795565b9050919050565b6000600182019050919050565b6000611944826118f9565b61194e8185610dcf565b935061195983611904565b8060005b838110156119915761196e82611919565b6119788882610df0565b97506119838361192c565b92505060018101905061195d565b5085935050505092915050565b600060a0830160008084015490506119b581611771565b6119c26000870182610c4b565b50600184015490506119d381611795565b6119e06020870182610c5a565b506002840185830360408701526119f78382611885565b925050600384018583036060870152611a108382611885565b925050600484018583036080870152611a298382611939565b925050819250505092915050565b6000606082019050611a4c60008301856113c0565b8181036020830152611a5d81611721565b90508181036040830152611a71818461199e565b90509392505050565b6000611a8582610bbc565b91507fffffffffffffffffffffffffffffffffffffffffffffffffffffffffffffffff821415611ab857611ab76113ea565b5b600182019050919050565b7f796f75206e65656420746f20706179206174206c65617374203130303020776560008201527f6920746f2075706c6f6164206e65772064617461000000000000000000000000602082015250565b6000611b1f6034836114a7565b9150611b2a82611ac3565b604082019050919050565b60006020820190508181036000830152611b4e81611b12565b9050919050565b7f72656365697665642075706c6f61640000000000000000000000000000000000600082015250565b6000611b8b600f836114a7565b9150611b9682611b55565b602082019050919050565b600060a083016000830151611bb96000860182610c4b565b506020830151611bcc6020860182610c5a565b5060408301518482036040860152611be48282610d4f565b91505060608301518482036060860152611bfe8282610d4f565b91505060808301518482036080860152611c188282610e15565b9150508091505092915050565b6000606082019050611c3a60008301856113c0565b8181036020830152611c4b81611b7e565b90508181036040830152611c5f8184611ba1565b90509392505050565b6000611c7382610bbc565b9150611c7e83610bbc565b9250827fffffffffffffffffffffffffffffffffffffffffffffffffffffffffffffffff03821115611cb357611cb26113ea565b5b82820190509291505056fea2646970667358221220d4b0311cd162d4552cd0ed274bade87712dcb7f8c9952c3fae78ef33ed9f5a4c64736f6c63430008090033",
	"linkReferences": {},
	"deployedLinkReferences": {}
}