{
  "_format": "hh-sol-artifact-1",
  "contractName": "clean_my_web",
  "sourceName": "contracts/clean_my_web.sol",
  "abi": [
    {
      "inputs": [],
      "stateMutability": "nonpayable",
      "type": "constructor"
    },
    {
      "anonymous": false,
      "inputs": [
        {
          "components": [
            {
              "internalType": "address",
              "name": "contributor",
              "type": "address"
            },
            {
              "internalType": "uint256",
              "name": "created_time",
              "type": "uint256"
            },
            {
              "internalType": "string[]",
              "name": "url_list",
              "type": "string[]"
            },
            {
              "internalType": "string[]",
              "name": "feature_extractor",
              "type": "string[]"
            },
            {
              "internalType": "uint256[]",
              "name": "labels",
              "type": "uint256[]"
            }
          ],
          "indexed": false,
          "internalType": "struct clean_my_web.Data",
          "name": "data",
          "type": "tuple"
        }
      ],
      "name": "poped",
      "type": "event"
    },
    {
      "inputs": [
        {
          "internalType": "address",
          "name": "newOwner",
          "type": "address"
        }
      ],
      "name": "change_owner",
      "outputs": [],
      "stateMutability": "nonpayable",
      "type": "function"
    },
    {
      "inputs": [
        {
          "internalType": "address",
          "name": "user",
          "type": "address"
        }
      ],
      "name": "get_contribution",
      "outputs": [
        {
          "components": [
            {
              "internalType": "address",
              "name": "contributor",
              "type": "address"
            },
            {
              "internalType": "uint256",
              "name": "created_time",
              "type": "uint256"
            },
            {
              "internalType": "string[]",
              "name": "url_list",
              "type": "string[]"
            },
            {
              "internalType": "string[]",
              "name": "feature_extractor",
              "type": "string[]"
            },
            {
              "internalType": "uint256[]",
              "name": "labels",
              "type": "uint256[]"
            }
          ],
          "internalType": "struct clean_my_web.Data[]",
          "name": "",
          "type": "tuple[]"
        }
      ],
      "stateMutability": "view",
      "type": "function"
    },
    {
      "inputs": [],
      "name": "get_owner",
      "outputs": [
        {
          "internalType": "address",
          "name": "",
          "type": "address"
        }
      ],
      "stateMutability": "view",
      "type": "function"
    },
    {
      "inputs": [],
      "name": "pop",
      "outputs": [],
      "stateMutability": "nonpayable",
      "type": "function"
    },
    {
      "inputs": [
        {
          "components": [
            {
              "internalType": "address",
              "name": "contributor",
              "type": "address"
            },
            {
              "internalType": "uint256",
              "name": "created_time",
              "type": "uint256"
            },
            {
              "internalType": "string[]",
              "name": "url_list",
              "type": "string[]"
            },
            {
              "internalType": "string[]",
              "name": "feature_extractor",
              "type": "string[]"
            },
            {
              "internalType": "uint256[]",
              "name": "labels",
              "type": "uint256[]"
            }
          ],
          "internalType": "struct clean_my_web.Data",
          "name": "data",
          "type": "tuple"
        }
      ],
      "name": "upload",
      "outputs": [],
      "stateMutability": "nonpayable",
      "type": "function"
    }
  ],
  "bytecode": "0x608060405234801561001057600080fd5b50336000806101000a81548173ffffffffffffffffffffffffffffffffffffffff021916908373ffffffffffffffffffffffffffffffffffffffff160217905550611bd9806100606000396000f3fe608060405234801561001057600080fd5b50600436106100575760003560e01c80630ac298dc1461005c57806310bef8151461007a578063253c8bd4146100aa578063a4ece52c146100c6578063e9510b7e146100d0575b600080fd5b6100646100ec565b6040516100719190611060565b60405180910390f35b610094600480360381019061008f91906110bb565b610115565b6040516100a19190611460565b60405180910390f35b6100c460048036038101906100bf91906110bb565b610475565b005b6100ce610510565b005b6100ea60048036038101906100e59190611876565b610a47565b005b60008060009054906101000a900473ffffffffffffffffffffffffffffffffffffffff16905090565b606060008054906101000a900473ffffffffffffffffffffffffffffffffffffffff1673ffffffffffffffffffffffffffffffffffffffff163373ffffffffffffffffffffffffffffffffffffffff161461016f57600080fd5b600260008373ffffffffffffffffffffffffffffffffffffffff1673ffffffffffffffffffffffffffffffffffffffff168152602001908152602001600020805480602002602001604051908101604052809291908181526020016000905b8282101561046a57838290600052602060002090600502016040518060a00160405290816000820160009054906101000a900473ffffffffffffffffffffffffffffffffffffffff1673ffffffffffffffffffffffffffffffffffffffff1673ffffffffffffffffffffffffffffffffffffffff1681526020016001820154815260200160028201805480602002602001604051908101604052809291908181526020016000905b82821015610322578382906000526020600020018054610295906118ee565b80601f01602080910402602001604051908101604052809291908181526020018280546102c1906118ee565b801561030e5780601f106102e35761010080835404028352916020019161030e565b820191906000526020600020905b8154815290600101906020018083116102f157829003601f168201915b505050505081526020019060010190610276565b50505050815260200160038201805480602002602001604051908101604052809291908181526020016000905b828210156103fb57838290600052602060002001805461036e906118ee565b80601f016020809104026020016040519081016040528092919081815260200182805461039a906118ee565b80156103e75780601f106103bc576101008083540402835291602001916103e7565b820191906000526020600020905b8154815290600101906020018083116103ca57829003601f168201915b50505050508152602001906001019061034f565b5050505081526020016004820180548060200260200160405190810160405280929190818152602001828054801561045257602002820191906000526020600020905b81548152602001906001019080831161043e575b505050505081525050815260200190600101906101ce565b505050509050919050565b60008054906101000a900473ffffffffffffffffffffffffffffffffffffffff1673ffffffffffffffffffffffffffffffffffffffff163373ffffffffffffffffffffffffffffffffffffffff16146104cd57600080fd5b806000806101000a81548173ffffffffffffffffffffffffffffffffffffffff021916908373ffffffffffffffffffffffffffffffffffffffff16021790555050565b600060018054905011610558576040517f08c379a000000000000000000000000000000000000000000000000000000000815260040161054f9061197d565b60405180910390fd5b60008054906101000a900473ffffffffffffffffffffffffffffffffffffffff1673ffffffffffffffffffffffffffffffffffffffff163373ffffffffffffffffffffffffffffffffffffffff16146105b057600080fd5b600060016000815481106105c7576105c661199d565b5b90600052602060002090600502016040518060a00160405290816000820160009054906101000a900473ffffffffffffffffffffffffffffffffffffffff1673ffffffffffffffffffffffffffffffffffffffff1673ffffffffffffffffffffffffffffffffffffffff1681526020016001820154815260200160028201805480602002602001604051908101604052809291908181526020016000905b82821015610711578382906000526020600020018054610684906118ee565b80601f01602080910402602001604051908101604052809291908181526020018280546106b0906118ee565b80156106fd5780601f106106d2576101008083540402835291602001916106fd565b820191906000526020600020905b8154815290600101906020018083116106e057829003601f168201915b505050505081526020019060010190610665565b50505050815260200160038201805480602002602001604051908101604052809291908181526020016000905b828210156107ea57838290600052602060002001805461075d906118ee565b80601f0160208091040260200160405190810160405280929190818152602001828054610789906118ee565b80156107d65780601f106107ab576101008083540402835291602001916107d6565b820191906000526020600020905b8154815290600101906020018083116107b957829003601f168201915b50505050508152602001906001019061073e565b5050505081526020016004820180548060200260200160405190810160405280929190818152602001828054801561084157602002820191906000526020600020905b81548152602001906001019080831161082d575b505050505081525050905060005b6001808054905061086091906119fb565b81101561098257600180826108759190611a2f565b815481106108865761088561199d565b5b9060005260206000209060050201600182815481106108a8576108a761199d565b5b90600052602060002090600502016000820160009054906101000a900473ffffffffffffffffffffffffffffffffffffffff168160000160006101000a81548173ffffffffffffffffffffffffffffffffffffffff021916908373ffffffffffffffffffffffffffffffffffffffff16021790555060018201548160010155600282018160020190805461093d929190610ce2565b506003820181600301908054610954929190610ce2565b50600482018160040190805461096b929190610d4a565b50905050808061097a90611a85565b91505061084f565b50600180548061099557610994611ace565b5b6001900381819060005260206000209060050201600080820160006101000a81549073ffffffffffffffffffffffffffffffffffffffff021916905560018201600090556002820160006109e99190610d9c565b6003820160006109f99190610d9c565b600482016000610a099190610dbd565b505090557fbe57fcb8696fd90dcb35162ff07be8a5ae68d891fea95075beee7b539228274e81604051610a3c9190611b81565b60405180910390a150565b600181908060018154018082558091505060019003906000526020600020906005020160009091909190915060008201518160000160006101000a81548173ffffffffffffffffffffffffffffffffffffffff021916908373ffffffffffffffffffffffffffffffffffffffff160217905550602082015181600101556040820151816002019080519060200190610ae0929190610dde565b506060820151816003019080519060200190610afd929190610dde565b506080820151816004019080519060200190610b1a929190610e3e565b505050600260003373ffffffffffffffffffffffffffffffffffffffff1673ffffffffffffffffffffffffffffffffffffffff16815260200190815260200160002081908060018154018082558091505060019003906000526020600020906005020160009091909190915060008201518160000160006101000a81548173ffffffffffffffffffffffffffffffffffffffff021916908373ffffffffffffffffffffffffffffffffffffffff160217905550602082015181600101556040820151816002019080519060200190610bf3929190610dde565b506060820151816003019080519060200190610c10929190610dde565b506080820151816004019080519060200190610c2d929190610e3e565b5050506001600260003373ffffffffffffffffffffffffffffffffffffffff1673ffffffffffffffffffffffffffffffffffffffff168152602001908152602001600020805490501415610cdf576003339080600181540180825580915050600190039060005260206000200160009091909190916101000a81548173ffffffffffffffffffffffffffffffffffffffff021916908373ffffffffffffffffffffffffffffffffffffffff1602179055505b50565b828054828255906000526020600020908101928215610d395760005260206000209182015b82811115610d38578282908054610d1d906118ee565b610d28929190610e8b565b5091600101919060010190610d07565b5b509050610d469190610f18565b5090565b828054828255906000526020600020908101928215610d8b5760005260206000209182015b82811115610d8a578254825591600101919060010190610d6f565b5b509050610d989190610f3c565b5090565b5080546000825590600052602060002090810190610dba9190610f18565b50565b5080546000825590600052602060002090810190610ddb9190610f3c565b50565b828054828255906000526020600020908101928215610e2d579160200282015b82811115610e2c578251829080519060200190610e1c929190610f59565b5091602001919060010190610dfe565b5b509050610e3a9190610f18565b5090565b828054828255906000526020600020908101928215610e7a579160200282015b82811115610e79578251825591602001919060010190610e5e565b5b509050610e879190610f3c565b5090565b828054610e97906118ee565b90600052602060002090601f016020900481019282610eb95760008555610f07565b82601f10610eca5780548555610f07565b82800160010185558215610f0757600052602060002091601f016020900482015b82811115610f06578254825591600101919060010190610eeb565b5b509050610f149190610f3c565b5090565b5b80821115610f385760008181610f2f9190610fdf565b50600101610f19565b5090565b5b80821115610f55576000816000905550600101610f3d565b5090565b828054610f65906118ee565b90600052602060002090601f016020900481019282610f875760008555610fce565b82601f10610fa057805160ff1916838001178555610fce565b82800160010185558215610fce579182015b82811115610fcd578251825591602001919060010190610fb2565b5b509050610fdb9190610f3c565b5090565b508054610feb906118ee565b6000825580601f10610ffd575061101c565b601f01602090049060005260206000209081019061101b9190610f3c565b5b50565b600073ffffffffffffffffffffffffffffffffffffffff82169050919050565b600061104a8261101f565b9050919050565b61105a8161103f565b82525050565b60006020820190506110756000830184611051565b92915050565b6000604051905090565b600080fd5b600080fd5b6110988161103f565b81146110a357600080fd5b50565b6000813590506110b58161108f565b92915050565b6000602082840312156110d1576110d0611085565b5b60006110df848285016110a6565b91505092915050565b600081519050919050565b600082825260208201905092915050565b6000819050602082019050919050565b61111d8161103f565b82525050565b6000819050919050565b61113681611123565b82525050565b600081519050919050565b600082825260208201905092915050565b6000819050602082019050919050565b600081519050919050565b600082825260208201905092915050565b60005b838110156111a2578082015181840152602081019050611187565b838111156111b1576000848401525b50505050565b6000601f19601f8301169050919050565b60006111d382611168565b6111dd8185611173565b93506111ed818560208601611184565b6111f6816111b7565b840191505092915050565b600061120d83836111c8565b905092915050565b6000602082019050919050565b600061122d8261113c565b6112378185611147565b93508360208202850161124985611158565b8060005b8581101561128557848403895281516112668582611201565b945061127183611215565b925060208a0199505060018101905061124d565b50829750879550505050505092915050565b600081519050919050565b600082825260208201905092915050565b6000819050602082019050919050565b60006112cf838361112d565b60208301905092915050565b6000602082019050919050565b60006112f382611297565b6112fd81856112a2565b9350611308836112b3565b8060005b8381101561133957815161132088826112c3565b975061132b836112db565b92505060018101905061130c565b5085935050505092915050565b600060a08301600083015161135e6000860182611114565b506020830151611371602086018261112d565b50604083015184820360408601526113898282611222565b915050606083015184820360608601526113a38282611222565b915050608083015184820360808601526113bd82826112e8565b9150508091505092915050565b60006113d68383611346565b905092915050565b6000602082019050919050565b60006113f6826110e8565b61140081856110f3565b93508360208202850161141285611104565b8060005b8581101561144e578484038952815161142f85826113ca565b945061143a836113de565b925060208a01995050600181019050611416565b50829750879550505050505092915050565b6000602082019050818103600083015261147a81846113eb565b905092915050565b600080fd5b7f4e487b7100000000000000000000000000000000000000000000000000000000600052604160045260246000fd5b6114bf826111b7565b810181811067ffffffffffffffff821117156114de576114dd611487565b5b80604052505050565b60006114f161107b565b90506114fd82826114b6565b919050565b600080fd5b61151081611123565b811461151b57600080fd5b50565b60008135905061152d81611507565b92915050565b600080fd5b600067ffffffffffffffff82111561155357611552611487565b5b602082029050602081019050919050565b600080fd5b600080fd5b600067ffffffffffffffff82111561158957611588611487565b5b611592826111b7565b9050602081019050919050565b82818337600083830152505050565b60006115c16115bc8461156e565b6114e7565b9050828152602081018484840111156115dd576115dc611569565b5b6115e884828561159f565b509392505050565b600082601f83011261160557611604611533565b5b81356116158482602086016115ae565b91505092915050565b600061163161162c84611538565b6114e7565b9050808382526020820190506020840283018581111561165457611653611564565b5b835b8181101561169b57803567ffffffffffffffff81111561167957611678611533565b5b80860161168689826115f0565b85526020850194505050602081019050611656565b5050509392505050565b600082601f8301126116ba576116b9611533565b5b81356116ca84826020860161161e565b91505092915050565b600067ffffffffffffffff8211156116ee576116ed611487565b5b602082029050602081019050919050565b600061171261170d846116d3565b6114e7565b9050808382526020820190506020840283018581111561173557611734611564565b5b835b8181101561175e578061174a888261151e565b845260208401935050602081019050611737565b5050509392505050565b600082601f83011261177d5761177c611533565b5b813561178d8482602086016116ff565b91505092915050565b600060a082840312156117ac576117ab611482565b5b6117b660a06114e7565b905060006117c6848285016110a6565b60008301525060206117da8482850161151e565b602083015250604082013567ffffffffffffffff8111156117fe576117fd611502565b5b61180a848285016116a5565b604083015250606082013567ffffffffffffffff81111561182e5761182d611502565b5b61183a848285016116a5565b606083015250608082013567ffffffffffffffff81111561185e5761185d611502565b5b61186a84828501611768565b60808301525092915050565b60006020828403121561188c5761188b611085565b5b600082013567ffffffffffffffff8111156118aa576118a961108a565b5b6118b684828501611796565b91505092915050565b7f4e487b7100000000000000000000000000000000000000000000000000000000600052602260045260246000fd5b6000600282049050600182168061190657607f821691505b6020821081141561191a576119196118bf565b5b50919050565b600082825260208201905092915050565b7f696e646578206f7574206f6620626f756e640000000000000000000000000000600082015250565b6000611967601283611920565b915061197282611931565b602082019050919050565b600060208201905081810360008301526119968161195a565b9050919050565b7f4e487b7100000000000000000000000000000000000000000000000000000000600052603260045260246000fd5b7f4e487b7100000000000000000000000000000000000000000000000000000000600052601160045260246000fd5b6000611a0682611123565b9150611a1183611123565b925082821015611a2457611a236119cc565b5b828203905092915050565b6000611a3a82611123565b9150611a4583611123565b9250827fffffffffffffffffffffffffffffffffffffffffffffffffffffffffffffffff03821115611a7a57611a796119cc565b5b828201905092915050565b6000611a9082611123565b91507fffffffffffffffffffffffffffffffffffffffffffffffffffffffffffffffff821415611ac357611ac26119cc565b5b600182019050919050565b7f4e487b7100000000000000000000000000000000000000000000000000000000600052603160045260246000fd5b600060a083016000830151611b156000860182611114565b506020830151611b28602086018261112d565b5060408301518482036040860152611b408282611222565b91505060608301518482036060860152611b5a8282611222565b91505060808301518482036080860152611b7482826112e8565b9150508091505092915050565b60006020820190508181036000830152611b9b8184611afd565b90509291505056fea264697066735822122054f952d70e41967cf6190083815d24523de283d2ff36fef2c83936a0e7bbf11d64736f6c63430008090033",
  "linkReferences": {},
  "deployedLinkReferences": {}
}