{
  "_format": "hh-sol-artifact-1",
  "contractName": "clean_my_web",
  "sourceName": "contracts/clean_my_web.sol",
  "abi": [
    {
      "inputs": [],
      "stateMutability": "payable",
      "type": "constructor"
    },
    {
      "anonymous": false,
      "inputs": [
        {
          "indexed": false,
          "internalType": "uint256",
          "name": "index",
          "type": "uint256"
        },
        {
          "indexed": false,
          "internalType": "string",
          "name": "status",
          "type": "string"
        },
        {
          "components": [
            {
              "internalType": "address",
              "name": "contributor",
              "type": "address"
            },
            {
              "internalType": "uint256",
              "name": "created_time",
              "type": "uint256"
            },
            {
              "internalType": "string[]",
              "name": "url_list",
              "type": "string[]"
            },
            {
              "internalType": "string[]",
              "name": "feature_extractor",
              "type": "string[]"
            },
            {
              "internalType": "uint256[]",
              "name": "labels",
              "type": "uint256[]"
            }
          ],
          "indexed": false,
          "internalType": "struct clean_my_web.Data",
          "name": "data",
          "type": "tuple"
        }
      ],
      "name": "dataEvent",
      "type": "event"
    },
    {
      "inputs": [
        {
          "internalType": "address",
          "name": "newOwner",
          "type": "address"
        }
      ],
      "name": "change_owner",
      "outputs": [],
      "stateMutability": "nonpayable",
      "type": "function"
    },
    {
      "inputs": [
        {
          "internalType": "uint256",
          "name": "start_idx",
          "type": "uint256"
        }
      ],
      "name": "download",
      "outputs": [
        {
          "components": [
            {
              "internalType": "address",
              "name": "contributor",
              "type": "address"
            },
            {
              "internalType": "uint256",
              "name": "created_time",
              "type": "uint256"
            },
            {
              "internalType": "string[]",
              "name": "url_list",
              "type": "string[]"
            },
            {
              "internalType": "string[]",
              "name": "feature_extractor",
              "type": "string[]"
            },
            {
              "internalType": "uint256[]",
              "name": "labels",
              "type": "uint256[]"
            }
          ],
          "internalType": "struct clean_my_web.Data[]",
          "name": "",
          "type": "tuple[]"
        }
      ],
      "stateMutability": "payable",
      "type": "function"
    },
    {
      "inputs": [],
      "name": "flush",
      "outputs": [],
      "stateMutability": "payable",
      "type": "function"
    },
    {
      "inputs": [],
      "name": "get_owner",
      "outputs": [
        {
          "internalType": "address",
          "name": "",
          "type": "address"
        }
      ],
      "stateMutability": "view",
      "type": "function"
    },
    {
      "inputs": [
        {
          "components": [
            {
              "internalType": "address",
              "name": "contributor",
              "type": "address"
            },
            {
              "internalType": "uint256",
              "name": "created_time",
              "type": "uint256"
            },
            {
              "internalType": "string[]",
              "name": "url_list",
              "type": "string[]"
            },
            {
              "internalType": "string[]",
              "name": "feature_extractor",
              "type": "string[]"
            },
            {
              "internalType": "uint256[]",
              "name": "labels",
              "type": "uint256[]"
            }
          ],
          "internalType": "struct clean_my_web.Data",
          "name": "data",
          "type": "tuple"
        }
      ],
      "name": "upload",
      "outputs": [
        {
          "internalType": "uint256",
          "name": "",
          "type": "uint256"
        }
      ],
      "stateMutability": "payable",
      "type": "function"
    }
  ],
  "bytecode": "0x6080604052336000806101000a81548173ffffffffffffffffffffffffffffffffffffffff021916908373ffffffffffffffffffffffffffffffffffffffff160217905550611ea0806100536000396000f3fe60806040526004361061004a5760003560e01c80630ac298dc1461004f578063253c8bd41461007a5780636b9f96ea146100a357806387b9c24d146100ad578063e9510b7e146100dd575b600080fd5b34801561005b57600080fd5b5061006461010d565b6040516100719190610c77565b60405180910390f35b34801561008657600080fd5b506100a1600480360381019061009c9190610cd2565b610136565b005b6100ab6101d1565b005b6100c760048036038101906100c29190610d35565b61022b565b6040516100d491906110d0565b60405180910390f35b6100f760048036038101906100f291906114ba565b6107c7565b6040516101049190611512565b60405180910390f35b60008060009054906101000a900473ffffffffffffffffffffffffffffffffffffffff16905090565b60008054906101000a900473ffffffffffffffffffffffffffffffffffffffff1673ffffffffffffffffffffffffffffffffffffffff163373ffffffffffffffffffffffffffffffffffffffff161461018e57600080fd5b806000806101000a81548173ffffffffffffffffffffffffffffffffffffffff021916908373ffffffffffffffffffffffffffffffffffffffff16021790555050565b60008054906101000a900473ffffffffffffffffffffffffffffffffffffffff1673ffffffffffffffffffffffffffffffffffffffff163373ffffffffffffffffffffffffffffffffffffffff161461022957600080fd5b565b606061026c6040518060400160405280601281526020017f446f776e6c6f616420696e69746961746564000000000000000000000000000081525033610978565b6001826001805490506064610281919061155c565b61028b91906115b6565b61029591906115b6565b34116102d6576040517f08c379a00000000000000000000000000000000000000000000000000000000081526004016102cd9061166d565b60405180910390fd5b600180549050821061031d576040517f08c379a0000000000000000000000000000000000000000000000000000000008152600401610314906116d9565b60405180910390fd5b60008260018054905061033091906115b6565b67ffffffffffffffff811115610349576103486110f7565b5b60405190808252806020026020018201604052801561038257816020015b61036f610a3d565b8152602001906001900390816103675790505b50905060008390505b6001805490508110156107bd576000600182815481106103ae576103ad6116f9565b5b906000526020600020906005020160000160009054906101000a900473ffffffffffffffffffffffffffffffffffffffff1673ffffffffffffffffffffffffffffffffffffffff16606460405161040490611759565b60006040518083038185875af1925050503d8060008114610441576040519150601f19603f3d011682016040523d82523d6000602084013e610446565b606091505b505090508061048a576040517f08c379a0000000000000000000000000000000000000000000000000000000008152600401610481906117ba565b60405180910390fd5b6001828154811061049e5761049d6116f9565b5b90600052602060002090600502016040518060a00160405290816000820160009054906101000a900473ffffffffffffffffffffffffffffffffffffffff1673ffffffffffffffffffffffffffffffffffffffff1673ffffffffffffffffffffffffffffffffffffffff1681526020016001820154815260200160028201805480602002602001604051908101604052809291908181526020016000905b828210156105e857838290600052602060002001805461055b90611809565b80601f016020809104026020016040519081016040528092919081815260200182805461058790611809565b80156105d45780601f106105a9576101008083540402835291602001916105d4565b820191906000526020600020905b8154815290600101906020018083116105b757829003601f168201915b50505050508152602001906001019061053c565b50505050815260200160038201805480602002602001604051908101604052809291908181526020016000905b828210156106c157838290600052602060002001805461063490611809565b80601f016020809104026020016040519081016040528092919081815260200182805461066090611809565b80156106ad5780601f10610682576101008083540402835291602001916106ad565b820191906000526020600020905b81548152906001019060200180831161069057829003601f168201915b505050505081526020019060010190610615565b5050505081526020016004820180548060200260200160405190810160405280929190818152602001828054801561071857602002820191906000526020600020905b815481526020019060010190808311610704575b50505050508152505083868461072e91906115b6565b8151811061073f5761073e6116f9565b5b60200260200101819052507f4231f248c058b000b783a771f6e89723a6588d06ce65e17ab8937c3f456fb9e960018054905060018481548110610785576107846116f9565b5b90600052602060002090600502016040516107a1929190611b7a565b60405180910390a15080806107b590611bbd565b91505061038b565b5080915050919050565b60006108086040518060400160405280601081526020017f55706c6f616420696e697469617465640000000000000000000000000000000081525033610978565b6103e7341161084c576040517f08c379a000000000000000000000000000000000000000000000000000000000815260040161084390611c78565b60405180910390fd5b600182908060018154018082558091505060019003906000526020600020906005020160009091909190915060008201518160000160006101000a81548173ffffffffffffffffffffffffffffffffffffffff021916908373ffffffffffffffffffffffffffffffffffffffff1602179055506020820151816001015560408201518160020190805190602001906108e5929190610a82565b506060820151816003019080519060200190610902929190610a82565b50608082015181600401908051906020019061091f929190610ae2565b5050507f4231f248c058b000b783a771f6e89723a6588d06ce65e17ab8937c3f456fb9e960018054905083604051610958929190611d68565b60405180910390a1600180805490506109719190611dab565b9050919050565b610a10828260405160240161098e929190611e3a565b6040516020818303038152906040527f319af333000000000000000000000000000000000000000000000000000000007bffffffffffffffffffffffffffffffffffffffffffffffffffffffff19166020820180517bffffffffffffffffffffffffffffffffffffffffffffffffffffffff8381831617835250505050610a14565b5050565b60008151905060006a636f6e736f6c652e6c6f679050602083016000808483855afa5050505050565b6040518060a00160405280600073ffffffffffffffffffffffffffffffffffffffff168152602001600081526020016060815260200160608152602001606081525090565b828054828255906000526020600020908101928215610ad1579160200282015b82811115610ad0578251829080519060200190610ac0929190610b2f565b5091602001919060010190610aa2565b5b509050610ade9190610bb5565b5090565b828054828255906000526020600020908101928215610b1e579160200282015b82811115610b1d578251825591602001919060010190610b02565b5b509050610b2b9190610bd9565b5090565b828054610b3b90611809565b90600052602060002090601f016020900481019282610b5d5760008555610ba4565b82601f10610b7657805160ff1916838001178555610ba4565b82800160010185558215610ba4579182015b82811115610ba3578251825591602001919060010190610b88565b5b509050610bb19190610bd9565b5090565b5b80821115610bd55760008181610bcc9190610bf6565b50600101610bb6565b5090565b5b80821115610bf2576000816000905550600101610bda565b5090565b508054610c0290611809565b6000825580601f10610c145750610c33565b601f016020900490600052602060002090810190610c329190610bd9565b5b50565b600073ffffffffffffffffffffffffffffffffffffffff82169050919050565b6000610c6182610c36565b9050919050565b610c7181610c56565b82525050565b6000602082019050610c8c6000830184610c68565b92915050565b6000604051905090565b600080fd5b600080fd5b610caf81610c56565b8114610cba57600080fd5b50565b600081359050610ccc81610ca6565b92915050565b600060208284031215610ce857610ce7610c9c565b5b6000610cf684828501610cbd565b91505092915050565b6000819050919050565b610d1281610cff565b8114610d1d57600080fd5b50565b600081359050610d2f81610d09565b92915050565b600060208284031215610d4b57610d4a610c9c565b5b6000610d5984828501610d20565b91505092915050565b600081519050919050565b600082825260208201905092915050565b6000819050602082019050919050565b610d9781610c56565b82525050565b610da681610cff565b82525050565b600081519050919050565b600082825260208201905092915050565b6000819050602082019050919050565b600081519050919050565b600082825260208201905092915050565b60005b83811015610e12578082015181840152602081019050610df7565b83811115610e21576000848401525b50505050565b6000601f19601f8301169050919050565b6000610e4382610dd8565b610e4d8185610de3565b9350610e5d818560208601610df4565b610e6681610e27565b840191505092915050565b6000610e7d8383610e38565b905092915050565b6000602082019050919050565b6000610e9d82610dac565b610ea78185610db7565b935083602082028501610eb985610dc8565b8060005b85811015610ef55784840389528151610ed68582610e71565b9450610ee183610e85565b925060208a01995050600181019050610ebd565b50829750879550505050505092915050565b600081519050919050565b600082825260208201905092915050565b6000819050602082019050919050565b6000610f3f8383610d9d565b60208301905092915050565b6000602082019050919050565b6000610f6382610f07565b610f6d8185610f12565b9350610f7883610f23565b8060005b83811015610fa9578151610f908882610f33565b9750610f9b83610f4b565b925050600181019050610f7c565b5085935050505092915050565b600060a083016000830151610fce6000860182610d8e565b506020830151610fe16020860182610d9d565b5060408301518482036040860152610ff98282610e92565b915050606083015184820360608601526110138282610e92565b9150506080830151848203608086015261102d8282610f58565b9150508091505092915050565b60006110468383610fb6565b905092915050565b6000602082019050919050565b600061106682610d62565b6110708185610d6d565b93508360208202850161108285610d7e565b8060005b858110156110be578484038952815161109f858261103a565b94506110aa8361104e565b925060208a01995050600181019050611086565b50829750879550505050505092915050565b600060208201905081810360008301526110ea818461105b565b905092915050565b600080fd5b7f4e487b7100000000000000000000000000000000000000000000000000000000600052604160045260246000fd5b61112f82610e27565b810181811067ffffffffffffffff8211171561114e5761114d6110f7565b5b80604052505050565b6000611161610c92565b905061116d8282611126565b919050565b600080fd5b600080fd5b600067ffffffffffffffff821115611197576111966110f7565b5b602082029050602081019050919050565b600080fd5b600080fd5b600067ffffffffffffffff8211156111cd576111cc6110f7565b5b6111d682610e27565b9050602081019050919050565b82818337600083830152505050565b6000611205611200846111b2565b611157565b905082815260208101848484011115611221576112206111ad565b5b61122c8482856111e3565b509392505050565b600082601f83011261124957611248611177565b5b81356112598482602086016111f2565b91505092915050565b60006112756112708461117c565b611157565b90508083825260208201905060208402830185811115611298576112976111a8565b5b835b818110156112df57803567ffffffffffffffff8111156112bd576112bc611177565b5b8086016112ca8982611234565b8552602085019450505060208101905061129a565b5050509392505050565b600082601f8301126112fe576112fd611177565b5b813561130e848260208601611262565b91505092915050565b600067ffffffffffffffff821115611332576113316110f7565b5b602082029050602081019050919050565b600061135661135184611317565b611157565b90508083825260208201905060208402830185811115611379576113786111a8565b5b835b818110156113a2578061138e8882610d20565b84526020840193505060208101905061137b565b5050509392505050565b600082601f8301126113c1576113c0611177565b5b81356113d1848260208601611343565b91505092915050565b600060a082840312156113f0576113ef6110f2565b5b6113fa60a0611157565b9050600061140a84828501610cbd565b600083015250602061141e84828501610d20565b602083015250604082013567ffffffffffffffff81111561144257611441611172565b5b61144e848285016112e9565b604083015250606082013567ffffffffffffffff81111561147257611471611172565b5b61147e848285016112e9565b606083015250608082013567ffffffffffffffff8111156114a2576114a1611172565b5b6114ae848285016113ac565b60808301525092915050565b6000602082840312156114d0576114cf610c9c565b5b600082013567ffffffffffffffff8111156114ee576114ed610ca1565b5b6114fa848285016113da565b91505092915050565b61150c81610cff565b82525050565b60006020820190506115276000830184611503565b92915050565b7f4e487b7100000000000000000000000000000000000000000000000000000000600052601160045260246000fd5b600061156782610cff565b915061157283610cff565b9250817fffffffffffffffffffffffffffffffffffffffffffffffffffffffffffffffff04831182151516156115ab576115aa61152d565b5b828202905092915050565b60006115c182610cff565b91506115cc83610cff565b9250828210156115df576115de61152d565b5b828203905092915050565b600082825260208201905092915050565b7f796f75206e65656420746f20706179206174206c65617374203130302077656960008201527f20746f20646f776e6c6f6164206e657720646174610000000000000000000000602082015250565b60006116576035836115ea565b9150611662826115fb565b604082019050919050565b600060208201905081810360008301526116868161164a565b9050919050565b7f537461727420696e646578206f7574206f6620626f756e647300000000000000600082015250565b60006116c36019836115ea565b91506116ce8261168d565b602082019050919050565b600060208201905081810360008301526116f2816116b6565b9050919050565b7f4e487b7100000000000000000000000000000000000000000000000000000000600052603260045260246000fd5b600081905092915050565b50565b6000611743600083611728565b915061174e82611733565b600082019050919050565b600061176482611736565b9150819050919050565b7f6661696c656420746f2070617920636f6e7472696275746f7200000000000000600082015250565b60006117a46019836115ea565b91506117af8261176e565b602082019050919050565b600060208201905081810360008301526117d381611797565b9050919050565b7f4e487b7100000000000000000000000000000000000000000000000000000000600052602260045260246000fd5b6000600282049050600182168061182157607f821691505b60208210811415611835576118346117da565b5b50919050565b7f737563636573737366756c6c79207061696420636f6e7472696275746f720000600082015250565b6000611871601e836115ea565b915061187c8261183b565b602082019050919050565b60008160001c9050919050565b600073ffffffffffffffffffffffffffffffffffffffff82169050919050565b60006118c76118c283611887565b611894565b9050919050565b6000819050919050565b60006118eb6118e683611887565b6118ce565b9050919050565b600081549050919050565b60008190508160005260206000209050919050565b60008190508160005260206000209050919050565b6000815461193481611809565b61193e8186610de3565b94506001821660008114611959576001811461196b5761199e565b60ff198316865260208601935061199e565b61197485611912565b60005b8381101561199657815481890152600182019150602081019050611977565b808801955050505b50505092915050565b60006119b38383611927565b905092915050565b6000600182019050919050565b60006119d3826118f2565b6119dd8185610db7565b9350836020820285016119ef856118fd565b8060005b85811015611a2a57848403895281611a0b85826119a7565b9450611a16836119bb565b925060208a019950506001810190506119f3565b50829750879550505050505092915050565b600081549050919050565b60008190508160005260206000209050919050565b6000611a6882546118d8565b9050919050565b6000600182019050919050565b6000611a8782611a3c565b611a918185610f12565b9350611a9c83611a47565b8060005b83811015611ad457611ab182611a5c565b611abb8882610f33565b9750611ac683611a6f565b925050600181019050611aa0565b5085935050505092915050565b600060a083016000808401549050611af8816118b4565b611b056000870182610d8e565b5060018401549050611b16816118d8565b611b236020870182610d9d565b50600284018583036040870152611b3a83826119c8565b925050600384018583036060870152611b5383826119c8565b925050600484018583036080870152611b6c8382611a7c565b925050819250505092915050565b6000606082019050611b8f6000830185611503565b8181036020830152611ba081611864565b90508181036040830152611bb48184611ae1565b90509392505050565b6000611bc882610cff565b91507fffffffffffffffffffffffffffffffffffffffffffffffffffffffffffffffff821415611bfb57611bfa61152d565b5b600182019050919050565b7f796f75206e65656420746f20706179206174206c65617374203130303020776560008201527f6920746f2075706c6f6164206e65772064617461000000000000000000000000602082015250565b6000611c626034836115ea565b9150611c6d82611c06565b604082019050919050565b60006020820190508181036000830152611c9181611c55565b9050919050565b7f72656365697665642075706c6f61640000000000000000000000000000000000600082015250565b6000611cce600f836115ea565b9150611cd982611c98565b602082019050919050565b600060a083016000830151611cfc6000860182610d8e565b506020830151611d0f6020860182610d9d565b5060408301518482036040860152611d278282610e92565b91505060608301518482036060860152611d418282610e92565b91505060808301518482036080860152611d5b8282610f58565b9150508091505092915050565b6000606082019050611d7d6000830185611503565b8181036020830152611d8e81611cc1565b90508181036040830152611da28184611ce4565b90509392505050565b6000611db682610cff565b9150611dc183610cff565b9250827fffffffffffffffffffffffffffffffffffffffffffffffffffffffffffffffff03821115611df657611df561152d565b5b828201905092915050565b6000611e0c82610dd8565b611e1681856115ea565b9350611e26818560208601610df4565b611e2f81610e27565b840191505092915050565b60006040820190508181036000830152611e548185611e01565b9050611e636020830184610c68565b939250505056fea264697066735822122013a9862b8b97ecfa198f178589a53b9576b6ce9f15ab201d0e92cc9a3db66f0964736f6c63430008090033",
  "linkReferences": {},
  "deployedLinkReferences": {}
}